:100A9C004C6967687420496E74656E73697479214A
:030AAC0000250022
:0D0AAF00EF4E600800EF1F70F71E80F4226C
:0A0A1600C2B68F90D2B77F0A7E00AF
:100A20007C007D46120978E4FDC3ED9FEC9E5008E2
:080A3000000DBD00010C80F176
:010A3800229B
:100A39007C037DE8120978AB07AA06900000D3E58C
:100A4900829BE5839A500A7F017E00120A20A380C7
:010A5900EDAF
:010A5A002279
:080AC800C2B5120A16C2B722E2
:080AD000D2B5120A16C2B722CA
:100A75007F38120AC87F06120AC87F0C120AC87F7F
:040A850001020AC898
:100A890012095FFF600C120AD0740129F9E43AFADD
:030A990080EE22CA
:1009E700EF75F06484FEEF75F06484AFF0EF75F097
:1009F7000A84FBEF75F00A84AAF0EE2430FF120A8E
:0F0A0700D0EB2430FF120AD0EA2430FF020AD0CD
:100A5B00C2B3120A1CD2B37F147E00120A20C2B397
:0A0A6B007F1E7E00120A20AFA022B9
:10099800E4F580120A757F01120AC87F80120AC81E
:1009A8007BFF7A0A799C120A897FC3120AC87A0ADD
:1009B80079AD120A897FC0120AC8120A5BA907AC6E
:1009C80001E41208AA7B337A3379237840120803AA
:0F09D8001208DE1209E77FC87E00120A2080D6BF
:10080000020954EC5D046005E85904700302094ACA
:10081000120915580460F6EC4860F2EC7004FDFE15
:10082000FF22C860DB2481C85009C39860025006CB
:100830000209519850CAF582E9294B4A7005AB82EA
:1008400002094075F0007C1A7880C3EF9BEE9AEDA8
:1008500099400DC3EF9BFFEE9AFEED99FDE842F043
:10086000DC23ACF0D0E0FFD0E0FED0E0FDAB822096
:10087000E7101BEB60BAEC2CFCEF33FFEE33FEED20
:1008800033FD02092CE803F830E705C0F075F000ED
:10089000EF2FFFEE33FEED33FD40B830E7C280AA04
:1008A00075F020800E75F010800575F0087D007ED3
:1008B000007F003392D530D50312098AEC33401003
:1008C000EF33FFEE33FEED33FDEC33FCD5F0ED22DC
:0E08D000E5F0247EA2D513CC92E7CDCEFF2218
:1008DE00EDD2E7CD33EC3392D524814006E4FFFE12
:1008EE00FDFC22FCE4CFCECDCC24E0501174FF8071
:1008FE00EDC3CC13CCCD13CDCE13CECF13CF04700E
:07090E00F030D5DE02098A7A
:10091500E9D2E7C933E833F892D5EDD2E7CD33EC28
:0709250033FC5002B2D522A1
:10092C00EC30E7100FBF000C0EBE00080DBD00042C
:10093C000BEB6014A2D5EB13FCED92E7FD2274FFD8
:10094C00FCFDFEFF22E480F8A2D574FF13FC7D8031
:03095C00E480EF45
:03000000020ABC35
:0C0ABC00787FE4F6D8FD758107020998E8
:10095F00BB010689828A83E0225002E722BBFE0296
:09096F00E32289828A83E49322C9
:10097800EF8DF0A4A8F0CF8CF0A428CE8DF0A42E93
:02098800FE224D
:0E098A00C3E49FFFE49EFEE49DFDE49CFC227E
:00000001FF
