:0C0A0D000A0881B7C292B49888B380B088
:0D0A0000EF4E600800EF1F70F71E80F4221B
:10099000C2B3D2B474082512F8E6F5907F0A7E003F
:1009A0001209B3D2B3C2B474082513F8E6F5907FE8
:0309B0000A7E00BC
:1009B3007C007D461209EEE4FDC3ED9FEC9E5008DA
:0809C300000DBD00010C80F1E4
:0109CB002209
:1009CC007C037DE81209EEAB07AA06900000D3E584
:1009DC00829BE5839A500A7F017E001209B3A380A3
:0109EC00ED1D
:0109ED0022E7
:10080000E4F58020B0260512D3E512648094894077
:10081000110513E4F512D3E513648094894003E4D1
:10082000F51320B00512099080F8C20020B12615FA
:1008300012C3E5126480948050111513751209C318
:10084000E51364809480500375130920B1051209E3
:100850009080F8D20012099020B2A8200048851399
:1008600015C3E5156480948A5037A912C3E96480E2
:10087000948A5026E4F514C2B3D2B474082912093C
:10088000ABD2B3C2B4740825151209AB0514C3E585
:1008900014648094B240E00980D2E4F5120515801A
:1008A000C0E4F5138046851315C3E5156480948074
:1008B0004037A912C3E9648094804026E4F514C24D
:1008C000B3D2B47408291209ABD2B3C2B4740825E8
:1008D000151209AB0514C3E514648094B240E01905
:1008E00080D2751209151580C0751309D2817590D3
:1008F000FEC2B4C2B3E59025E0F5907F017E001200
:0409000009CC80EDB1
:03000000020904EE
:0C090400787FE4F6D8FD75812002094BD5
:1009EE00EF8DF0A4A8F0CF8CF0A428CE8DF0A42E1D
:0209FE00FE22D7
:10091000020800E493A3F8E493A34003F68001F2F5
:1009200008DFF48029E493A3F85407240CC8C333E8
:10093000C4540F4420C8834004F456800146F6DFB7
:10094000E4800B0102040810204080900A0DE47E30
:10095000019360BCA3FF543F30E509541FFEE493AC
:10096000A360010ECF54C025E060A840B8E493A373
:10097000FAE493A3F8E493A3C8C582C8CAC583CA9E
:10098000F0A3C8C582C8CAC583CADFE9DEE780BE56
:010A190000DC
:00000001FF
