:10091A00204C657427732053544152542E2E2E2096
:10092A0000202020202020202020202020202020DD
:02093A0020009B
:0D096300EF4E600800EF1F70F71E80F422B9
:0A08D500C2B68FA0D2B77F0A7E00E2
:1008DF007C007D461208C3E4FDC3ED9FEC9E5008DB
:0808EF00000DBD00010C80F1B9
:0108F70022DE
:1008F8007C037DE81208C3AB07AA06900000D3E585
:10090800829BE5839A500A7F017E001208DFA3804C
:01091800EDF1
:0109190022BB
:08097C00C2B51208D5C2B72272
:08098400D2B51208D5C2B7225A
:10093C007F3812097C7F0612097C7F0C12097C7FA0
:04094C000102097C1F
:100950001208AAFF600C120984740129F9E43AFA1A
:0309600080EE2204
:10087B00EF75F06484FEEF75F06484AFF0EF75F004
:10088B000A84FBEF75F00A84AAF0EE2430FF1209FC
:0F089B0084EB2430FF120984EA2430FF02098421
:1008000012093C7580FF7F0112097C208004C29090
:10081000802A208113D290D292C291C2937F1E7EF1
:10082000001208DF7F32801C20820CC290D292D24C
:1008300091D2937F1E800D208311D290C292D291CB
:10084000D2937F1E7E001208DF80C07F8012097C59
:100850007BFF7A09791A1209507FC012097C7A0944
:10086000792B120950D290D292D291D29330809BA0
:0B08700030819830829530839280F236
:0300000002097082
:0C097000787FE4F6D8FD758107020800CE
:1008AA00BB010689828A83E0225002E722BBFE024C
:0908BA00E32289828A83E493227F
:1008C300EF8DF0A4A8F0CF8CF0A428CE8DF0A42E49
:0208D300FE2203
:00000001FF
