:100B7A002020526563696576696E672E2E2E2020C5
:100B8A00002020202020202020202020202020207B
:100B9A0020004C6967687420496E74656E736974C5
:050BAA00792100250087
:0D0CD100EF4E600800EF1F70F71E80F42248
:0E0BDE007F1E7E00120BEC7580087F1E7E00CD
:100BEC007C007D46120978E4FDC3ED9FEC9E500815
:080BFC00000DBD00010C80F1A9
:010C040022CD
:100C05007C037DE8120978AB07AA06900000D3E5BE
:100C1500829BE5839A500A7F017E00120BECA3802C
:010C2500EDE1
:010C260022AB
:070C7F007F01120C867F804B
:100C8600C2B5C2B68F90D2B77F0A7E00120BECC2F5
:020C9600B72283
:100CBF00D2B5C2B68F90D2B77F0A7E00120BECC2AC
:020CCF00B7224A
:100C98007F38120C867F06120C867F0E120C867F18
:040CA80001020C86B3
:100CAC0012095FFF600C120CBF740129F9E43AFAC7
:030CBC0080EE22A5
:100BAF00EF75F06484FEEF75F06484AFF0EF75F0CD
:100BBF000A84FBEF75F00A84AAF0EE2430FF120CC2
:0F0BCF00BFEB2430FF120CBFEA2430FF020CBF33
:020C2700AB0719
:100C2900E4FAEAC39B5015758004120BDE75801037
:0C0C3900120BE8758020120BE80A80E620
:010C4500228C
:020C4600AB07FA
:100C4800E4FAEAC39B5015758020120BE8758010F2
:0C0C5800120BDE758004120BE80A80E627
:010C6400226D
:100C6500C2B37F0A7E00120BECD2B37F147E001252
:0A0C75000BECC2B3120BE8AFA02293
:100A23007510007511C0E4F580120C987F01120C4B
:100A330086759850758920E4F50AF50BAE0AAF0B5D
:100A4300FC7D2012098A7C257D8012098A8E0C8FF9
:100A53000D758DFD758BFDD28E120C7F7BFF7A0B8E
:100A6300797A120CAC3098FDC298AF99750A008F51
:100A73000BAF11120C86AF0B120CBF0511E51170F1
:100A8300020510D394CFE510648094804002804A1D
:100A9300E50B6408450A701B7FC0120C867BFF7A46
:100AA3000B798B120CAC7510007511C0E4F50EF5C3
:100AB3000F80B2E50B6460450A7027E511151170CC
:100AC300021510AF11120C867F20120CBFC3E51163
:100AD30094C0E51064809480508B7510007511C02C
:100AE3008083E50B6431450A700D309803020A6870
:100AF3007F01120C2780F3E50B6432450A70103036
:100B03009803020A68E4F5807F01120C4680F0E541
:100B13000B6433450A7005D281020A68E50B64341D
:100B2300450A704B120C98120C7F7BFF7A0B799C51
:100B3300120CAC7FC3120C867A0B79AD120CAC305D
:100B43009803020A687FC0120C86120C65A907ACD1
:100B530001E41208AA7B337A33792378401208031D
:100B63001208DE120BAF7FC87E00120BEC80D0E4BC
:070B7300F5A0F580020A68FD
:10080000020954EC5D046005E85904700302094ACA
:10081000120915580460F6EC4860F2EC7004FDFE15
:10082000FF22C860DB2481C85009C39860025006CB
:100830000209519850CAF582E9294B4A7005AB82EA
:1008400002094075F0007C1A7880C3EF9BEE9AEDA8
:1008500099400DC3EF9BFFEE9AFEED99FDE842F043
:10086000DC23ACF0D0E0FFD0E0FED0E0FDAB822096
:10087000E7101BEB60BAEC2CFCEF33FFEE33FEED20
:1008800033FD02092CE803F830E705C0F075F000ED
:10089000EF2FFFEE33FEED33FD40B830E7C280AA04
:1008A00075F020800E75F010800575F0087D007ED3
:1008B000007F003392D530D5031209C0EC334010CD
:1008C000EF33FFEE33FEED33FDEC33FCD5F0ED22DC
:0E08D000E5F0247EA2D513CC92E7CDCEFF2218
:1008DE00EDD2E7CD33EC3392D524814006E4FFFE12
:1008EE00FDFC22FCE4CFCECDCC24E0501174FF8071
:1008FE00EDC3CC13CCCD13CDCE13CECF13CF04700E
:07090E00F030D5DE0209C044
:10091500E9D2E7C933E833F892D5EDD2E7CD33EC28
:0709250033FC5002B2D522A1
:10092C00EC30E7100FBF000C0EBE00080DBD00042C
:10093C000BEB6014A2D5EB13FCED92E7FD2274FFD8
:10094C00FCFDFEFF22E480F8A2D574FF13FC7D8031
:03095C00E480EF45
:03000000020CDE11
:0C0CDE00787FE4F6D8FD758111020A232E
:10095F00BB010689828A83E0225002E722BBFE0296
:09096F00E32289828A83E49322C9
:10097800EF8DF0A4A8F0CF8CF0A428CE8DF0A42E93
:02098800FE224D
:10098A00C2D5EC30E709B2D5E4C39DFDE49CFCEE88
:10099A0030E715B2D5E4C39FFFE49EFE1209CEC329
:1009AA00E49DFDE49CFC80031209CE30D507C3E424
:0609BA009FFFE49EFE22F7
:0E09C000C3E49FFFE49EFEE49DFDE49CFC2248
:1009CE00BC000BBE0029EF8DF084FFADF022E4CC0D
:1009DE00F875F008EF2FFFEE33FEEC33FCEE9DECD6
:1009EE00984005FCEE9DFE0FD5F0E9E4CEFD22ED1C
:1009FE00F8F5F0EE8420D21CFEADF075F008EF2F66
:100A0E00FFED33FD4007985006D5F0F222C398FD56
:050A1E000FD5F0EA22F3
:00000001FF
