:100C820050415353574F524400434F5252454354DD
:100C92002100494E434F5252454354202D5F2D00AF
:100CA20054727920416761696E21002020576520C6
:100CB200686176652074776F2E20200020202064E2
:100CC2006576696365732E2E2E20202000412073E5
:100CD200746570706572206D6F746F722E002020C3
:100CE200202042756C622E2E2E2E202020200020E5
:100CF200202A2A2050726573732031202A2A20006C
:100D0200466F7220537465707072204D6F746F72EB
:100D120000202020202020202020202020202020F1
:100D2200200020202A2A2050726573732032202A44
:100D32002A200020202020466F722042756C6220FB
:100D420020202000202020456E746572206E6F2EB8
:100D52002E20202000203020666F7220636C6B777B
:100D62006973652E2000203120666F722061636CEA
:100D72006B7769736520002020656E746572206B45
:100D820065792E2E2E2E2000202020204C6F6164AB
:100D9200696E67202020202000202020204C6F61D7
:100DA20064696E672E202020202000202020204C05
:100DB2006F6164696E672E2E202020202000206340
:100DC2006C6B206D6F746F72206F6E2E2E20002060
:100DD20061636C6B206D6F746F72206F6E2E2E00CC
:100DE20020202042756C62206F6E2E2E2E20202035
:100DF20000202057726F6E672043686F6963652019
:100E02002000202054727920416761696E202121DF
:030E12002020009D
:0D100B00EF4E600800EF1F70F71E80F4220A
:100E15007F01120FE57F017E00120E927F80120F77
:100E2500E57BFF7A0D798A120F667FF47E01120E3B
:100E3500597F80120FE57A0D799B120F667FF47E3C
:100E450001120E597F80120FE57A0D79AD120F66EA
:040E55007FF47E01A7
:100E59007C007D46120F92E4FDC3ED9FEC9E500885
:080E6900000DBD00010C80F139
:010E7100225E
:100E72007A0E7904120F667F017E00120E927FC0F5
:100E8200120FE57A0D79137BFF120F667F017E0048
:100E92007C037DE8120F92AB07AA06900000D3E50F
:100EA200829BE5839A500A7F017E00120E59A3802D
:010EB200ED52
:010EB300221C
:070FDE007BFF120F667FC0CC
:100FE500C2B5C2B68F90D2B77F0A7E00120E59C223
:020FF500B72221
:0A0FC2007FC0120FE5E5092430FF9F
:100FCC00D2B5C2B68F90D2B77F0A7E00120E59C22C
:020FDC00B7223A
:100FF7007F38120FE57F06120FE57F0E120FE57F90
:0410070001020FE5EE
:100F4D00E4F50CF50BF50AF5097F01120FE57F8429
:090F5D00120FE57BFF7A0C79828A
:100F6600120F79FF600C120FCC740129F9E43AFADA
:030F760080EE22E8
:100F1E00EF75F06484FEEF75F06484AFF0EF75F05A
:100F2E000A84FBEF75F00A84AAF0EE2430FF120F4C
:0F0F3E00CCEB2430FF120FCCEA2430FF020FCC93
:020EB400AB078A
:100EB600E4FAEAC39B502B7580047F147E00120E61
:100EC600597580087F147E00120E597580107F14A4
:100ED6007E00120E597580207F147E00120E590A6C
:020EE60080D0BA
:010EE80022E7
:020EE900AB0755
:100EEB00E4FAEAC39B502B7580207F147E00120E10
:100EFB00597580107F147E00120E597580087F146F
:100F0B007E00120E597580047F147E00120E590A52
:020F1B0080D084
:010F1D0022B1
:100FA400C2B37F0A7E00120E59D2B37F147E0012A0
:0E0FB4000E59C2B37F1E7E00120E59AFA0224E
:10080000E4F5807590FF120FF7120F4D30B22920DA
:10081000B002050930B0FDE509B40A03E4F509208A
:10082000B102150930B1FDC3E5096480948050031D
:10083000750909120FC280D47FC0120FE57F2A12FA
:100840000FCC120E5530B23320B00D050A30B0FD7A
:10085000E50AB40A03E4F50A20B111150A30B1FD26
:10086000C3E50A648094805003750A097FC1120FA2
:10087000E5E50A2430FF120FCC80CA7FC1120FE5D4
:100880007F2A120FCC120E5530B23320B00D050B5B
:1008900030B0FDE50BB40A03E4F50B20B111150BE4
:1008A00030B1FDC3E50B648094805003750B097F64
:1008B000C2120FE5E50B2430FF120FCC80CA7FC2B5
:1008C000120FE57F2A120FCC120E5530B23320B032
:1008D0000D050C30B0FDE50CB40A03E4F50C20B1B5
:1008E00011150C30B1FDC3E50C6480948050037584
:1008F0000C097FC3120FE5E50C2430FF120FCC80EA
:10090000CA7FC3120FE57F2A120FCC120E55E509DC
:100910006401702DE50A64027027E50BB40322E53B
:100920000CB4041D7F01120FE57F84120FE57BFFDD
:100930007A0C798B120F667F027E00120E92020AE9
:10094000737F01120FE5120E8E7F81120FE57BFF80
:100950007A0C7994120F667FC2120FE57A0C79A295
:10096000120E8B20B0FD7F01120FE5120E55120FF3
:100970004D30B22920B002050930B0FDE509B40AB6
:1009800003E4F50920B102150930B1FDC3E509649E
:100990008094805003750909120FC280D47FC01261
:1009A0000FE57F2A120FCC120E5530B23320B00D56
:1009B000050A30B0FDE50AB40A03E4F50A20B111D6
:1009C000150A30B1FDC3E50A648094805003750AAE
:1009D000097FC1120FE5E50A2430FF120FCC80CA4F
:1009E0007FC1120FE57F2A120FCC120E5530B233A1
:1009F00020B00D050B30B0FDE50BB40A03E4F50B98
:100A000020B111150B30B1FDC3E50B64809480500B
:100A100003750B097FC2120FE5E50B2430FF120F9F
:100A2000CC80CA7FC2120FE57F2A120FCC120E555E
:100A300030B23320B00D050C30B0FDE50CB40A0324
:100A4000E4F50C20B111150C30B1FDC3E50C648048
:100A500094805003750C097FC3120FE5E50C243018
:100A6000FF120FCC80CA7FC3120FE57F2A120FCC72
:100A7000120E557F01120FE5E4F50CF50BF50AF5A2
:100A8000097F80120FE57A0C79AD120FDE7A0C79AE
:100A9000BE120F667F037E00120E927F01120FE5D9
:100AA0007F2C7E01120E597F80120FE57A0C79CFD0
:100AB000120E897F01120FE57F2C7E01120E597FE5
:100AC00080120FE57BFF7A0C79E0120E8B7F01120A
:100AD0000FE5120E557F80120FE57A0C79F1120F97
:100AE000DE7A0D7902120F667F027E00120E927F6F
:100AF00080120FE57BFF7A0D7913120F667F80124B
:100B00000FE57A0D7924120FE07A0D7913120FE0B8
:100B10007A0D7935120F667F027E00120E927F01E8
:100B2000120FE5120E8E7F80120FE57BFF7A0D7992
:100B300046120F6630B22920B002050930B0FDE53B
:100B400009B40A03E4F50920B102150930B1FDC367
:100B5000E509648094805003750909120FC280D49E
:100B60007FC0120FE57F2A120FCC120E55E50964E3
:100B7000016003020C327F01120FE5120E8E7F809E
:100B8000120FE57BFF7A0D7957120FE07A0D796825
:100B9000120F667F027E00120E927F01120FE51285
:100BA0000E557F80120FE57BFF7A0D7979120F6663
:100BB00030B22920B002050930B0FDE509B40A03BE
:100BC000E4F50920B102150930B1FDC3E5096480DF
:100BD00094805003750909120FC280D47FC0120F90
:100BE000E57F2A120FCC120E55E509701E120E1564
:100BF00020B0030208097F80120FE57BFF7A0D7990
:100C0000C0120F667F01120EB480E5E50964016031
:100C100003020809120E1520B0030208097F801292
:100C20000FE57BFF7A0D79D1120F667F01120EE975
:100C300080E5E50964027026120E1530B0157F803C
:100C4000120FE57BFF7A0D79E2120F66D28130B088
:100C5000EA80FB30B003020809E4F58080F57F806C
:100C6000120FE57BFF7A0D79F3120FE0120E727FFF
:100C7000C0120FE57BFF120E7220B0FD120E55025E
:020C8000080961
:03000000021018D3
:0C101800787FE4F6D8FD75810C0208001A
:100F7900BB010689828A83E0225002E722BBFE0276
:090F8900E32289828A83E49322A9
:100F9200EF8DF0A4A8F0CF8CF0A428CE8DF0A42E73
:020FA200FE222D
:00000001FF
