:0D08D100EF4E600800EF1F70F71E80F4224C
:0E0838007F1E7E001208467580087F1E7E001F
:100846007C007D461208BFE4FDC3ED9FEC9E500878
:08085600000DBD00010C80F152
:01085E002277
:10085F007C037DE81208BFAB07AA06900000D3E522
:10086F00829BE5839A500A7F017E00120846A3807F
:01087F00ED8B
:010880002255
:02088100AB07C3
:10088300E4FAEAC39B50157580041208387580108A
:0C0893001208427580201208420A80E61C
:01089F002236
:0208A000AB07A4
:1008A200E4FAEAC39B501575802012084275801045
:0C08B2001208387580041208420A80E623
:0108BE002217
:1008000020B00D30B1FA30B2F77F0112088180F3C9
:1008100020B10D30B0EA30B2E77F011208A080F3BA
:1008200020B2DD30B0DA30B1D77F2812088112084B
:08083000427F281208A080EBB2
:030000000208DE15
:0C08DE00787FE4F6D8FD75810702080061
:1008BF00EF8DF0A4A8F0CF8CF0A428CE8DF0A42E4D
:0208CF00FE2207
:00000001FF
