:0A099000434F554E54494E472100D5
:0D097700EF4E600800EF1F70F71E80F422A5
:1008E0007FC0120953E5092430FF1209657F2C7E71
:0108F0000106
:1008F1007C007D461208CEE4FDC3ED9FEC9E5008BE
:08090100000DBD00010C80F1A6
:0109090022CB
:10090A007C037DE81208CEAB07AA06900000D3E567
:10091A00829BE5839A500A7F017E001208F1A38028
:01092A00EDDF
:01092B0022A9
:10095300C2B5C2B68FA0D2B77F0A7E001208F1C219
:02096300B722B9
:10096500D2B5C2B68FA0D2B77F0A7E001208F1C2F7
:02097500B722A7
:10092C007F381209537F061209537F0C1209537F2B
:04093C000102095358
:100940001208B5FF600C120965740129F9E43AFA3E
:0309500080EE2214
:10080000E4F580F59012092C7F801209537BFF7A62
:100810000979901209407FC0120953E5082430FF7E
:100820001209657F647E001208F120B00F050830C0
:10083000B0FDE508B40A03E4F508D20020B11615AE
:100840000830B1FDAF08EF3395E0FEEFF44E7003D2
:10085000750809C20020B2BE30002A850809C3E528
:10086000096480948A50071208E0050980F0E4F5D5
:1008700009D3E5086480F8E5096480985098120867
:10088000E0050980EC20008E850809C3E509648035
:10089000948040071208E0150980F0750909C3E546
:1008A000086480F8E509648098500302081612086D
:0508B000E0150980E9DC
:030000000209846E
:0C098400787FE4F6D8FD758120020800A1
:1008B500BB010689828A83E0225002E722BBFE0241
:0908C500E32289828A83E4932274
:1008CE00EF8DF0A4A8F0CF8CF0A428CE8DF0A42E3E
:0208DE00FE22F8
:00000001FF
