:0D087B00EF4E600800EF1F70F71E80F422A2
:04084C007F907E011A
:100850007C007D46120869E4FDC3ED9FEC9E5008C4
:08086000000DBD00010C80F148
:01086800226D
:10082A007C037DE8120869AB07AA06900000D3E5AD
:10083A00829BE5839A500A7F017E00120850A380AA
:01084A00EDC0
:01084B00228A
:1008000020B307B290B2A012084C20B407B292B243
:10081000A112084C20B507B294B2A212084C20B61F
:0A082000DFB296B2A312084C80D696
:030000000208886B
:0C088800787FE4F6D8FD758107020800B7
:10086900EF8DF0A4A8F0CF8CF0A428CE8DF0A42EA3
:02087900FE225D
:00000001FF
