:0909140050415353574F52440067
:0D08FB00EF4E600800EF1F70F71E80F42222
:0A088F00C2B68F90D2B77F0A7E0038
:100899007C007D4612087DE4FDC3ED9FEC9E500867
:0808A900000DBD00010C80F1FF
:0108B1002224
:1008B2007C037DE812087DAB07AA06900000D3E511
:1008C200829BE5839A500A7F017E00120899A380D9
:0108D200ED38
:0108D3002202
:08091D00C2B512088FC2B72217
:08092500D2B512088FC2B722FF
:1008D4007F3812091D7F0612091D7F0C12091D7F26
:0408E4000102091DE7
:1008E800120864FF600C120925740129F9E43AFA28
:0308F80080EE226D
:100800007509C0E4F58075A0FF1208D47F84120931
:100810001D7BFF7A0979141208E830B23A20B00D36
:10082000050830B0FDE508B40A03E4F50820B1116D
:10083000150830B1FDC3E508648094805003750845
:1008400009AF0912091DE5082430FF1209257F644C
:100850007E0012089980C320B2C0E4F50805092083
:04086000B2B880FBAF
:03000000020908EA
:0C090800787FE4F6D8FD75810902080034
:10086400BB010689828A83E0225002E722BBFE0292
:09087400E32289828A83E49322C5
:10087D00EF8DF0A4A8F0CF8CF0A428CE8DF0A42E8F
:02088D00FE2249
:00000001FF
