:1009AD002020526563696576696E672E2E2E202094
:0109BD000039
:0D09BE00EF4E600800EF1F70F71E80F4225E
:0A094100C2B68FA0D2B77F0A7E0075
:10094B007C007D46120819E4FDC3ED9FEC9E500818
:08095B00000DBD00010C80F14C
:010963002271
:100964007C037DE8120819AB07AA06900000D3E5C2
:10097400829BE5839A500A7F017E0012094BA38073
:01098400ED85
:01098500224F
:0809D700C2B5120941C2B722AA
:0809DF00D2B5120941C2B72292
:100986007F381209D77F061209D77F0C1209D77F45
:04099600010209D77A
:10099A00120800FF600C1209DF740129F9E43AFA1F
:0309AA0080EE22BA
:10091200EF75F06484FEEF75F06484AFF0EF75F06C
:100922000A84FBEF75F00A84AAF0EE2430FF120964
:0F093200DFEB2430FF1209DFEA2430FF0209DF78
:1008B600E4F5801209867F011209D775985075896B
:1008C60020E4F508F509AE08AF09FC7D2012082BD7
:1008D6007C257D8012082B8E0A8F0B758DFD758BFE
:1008E600FDD28E7F011209D77F801209D77BFF7A4E
:1008F6000979AD12099A3098FDC2987FC01209D7BE
:0C090600AF997508008F091209DF80EA24
:030000000209CB27
:0C09CB00787FE4F6D8FD75810B0208B6B9
:10080000BB010689828A83E0225002E722BBFE02F6
:09081000E32289828A83E4932229
:10081900EF8DF0A4A8F0CF8CF0A428CE8DF0A42EF3
:02082900FE22AD
:10082B00C2D5EC30E709B2D5E4C39DFDE49CFCEEE8
:10083B0030E715B2D5E4C39FFFE49EFE120861C3F7
:10084B00E49DFDE49CFC800312086130D507C3E4F2
:06085B009FFFE49EFE2257
:10086100BC000BBE0029EF8DF084FFADF022E4CC7B
:10087100F875F008EF2FFFEE33FEEC33FCEE9DEC44
:10088100984005FCEE9DFE0FD5F0E9E4CEFD22ED8A
:10089100F8F5F0EE8420D21CFEADF075F008EF2FD4
:1008A100FFED33FD4007985006D5F0F222C398FDC5
:0508B1000FD5F0EA2262
:00000001FF
